:100000000C9434000C9451000C9451000C94510049
:100010000C9451000C9451000C9451000C9451001C
:100020000C9451000C9451000C9451000C9451000C
:100030000C9451000C9451000C9451000C945100FC
:100040000C9451000C9451000C9451000C945100EC
:100050000C9451000C9451000C9451000C945100DC
:100060000C9451000C94510011241FBECFEFD8E026
:10007000DEBFCDBF11E0A0E0B1E0EEE6F9E002C0E6
:1000800005900D92AA36B107D9F711E0AAE6B1E0C2
:1000900001C01D92A037B107E1F70E945D010C94E9
:1000A000B5040C940000CF93DF93D82FC62F8AEBB2
:1000B0000E94A50081110AC08D2F0E94F8008C2F8C
:1000C0000E94F8000E94F00081E001C080E0DF9112
:1000D000CF9108951092C50087E68093C400E2ECAA
:1000E000F0E0808186608083E1ECF0E080818861CF
:1000F00080830895CF93C82F8A3029F460E070E0A0
:100100008DE00E947A008091C00085FFFCCFC093F3
:10011000C60080E090E0CF910895CF932091C00079
:1001200027FFFCCFC091C600BC018C2F0E947A0033
:100130008C2F90E0CF9108951092B9008CE08093BD
:10014000B80084E08093BC00089594EA9093BC00CA
:100150009091BC0097FFFCCF9091B900987F9830A8
:1001600021F0903111F081E008958093BB0084E884
:100170008093BC008091BC0087FFFCCF8091B900C8
:10018000887F883111F0803471F780E0089524EA87
:1001900034E844E92093BC009091BC0097FFFCCF69
:1001A0009091B900987F983011F0903199F7809331
:1001B000BB003093BC009091BC0097FFFCCF9091A6
:1001C000B900987F903211F0983539F44093BC0013
:1001D0009091BC0094FDFCCFDDCF08950C94A50058
:1001E00084E98093BC008091BC0084FDFCCF08951D
:1001F0008093BB0084E88093BC008091BC0087FFA3
:10020000FCCF9091B900987F81E0983209F480E0AA
:10021000089584EC8093BC008091BC0087FFFCCFE4
:100220008091BB00089584E88093BC008091BC005D
:1002300087FFFCCF8091BB0008950F931F93CF934E
:10024000DF93D82F8B018AEB0E94A500C82F811164
:100250001FC08D2F0E94F8008BEB0E94A50081111A
:1002600008C00E941301F80180830E94F000C1E0E1
:100270001EC08AE591E09F938F9386E691E09F935D
:100280008F930E94EA010F900F900F900F900FC074
:1002900081E691E09F938F9386E691E09F938F9301
:1002A0000E94EA010F900F900F900F90C0E08C2FEA
:1002B000DF91CF911F910F910895CF93DF93CDB729
:1002C000DEB72F970FB6F894DEBF0FBECDBF0E94EA
:1002D0006A000E949C00FE0131968EE0DF011D92B3
:1002E0008A95E9F783E08C838AE790E09A8789878B
:1002F0008DE890E09C878B87F0936D01E0936C0113
:10030000F0936B01E0936A01BE01615F7F4F8EE263
:100310000E941D01813069F48F851F928F9380E0C8
:1003200091E09F938F930E94EA010F900F900F909E
:100330000F906FEF8EE20E945300813069F41F929C
:100340008EE28F938FE091E09F938F930E94EA015A
:100350000F900F900F900F90BE01615F7F4F8EE264
:100360000E941D01813069F48F851F928F9382E274
:1003700091E09F938F930E94EA010F900F900F904E
:100380000F9060E08EE20E945300813069F41F926A
:100390008EE28F9380E391E09F938F930E94EA0116
:1003A0000F900F900F900F90BE01615F7F4F8EE214
:1003B0000E941D01813069F48F851F928F9383E421
:1003C00091E09F938F930E94EA010F900F900F90FE
:1003D0000F90FFCFA0E0B0E0E0EFF1E00C948E04CE
:1003E000AE014B5F5F4FFA0161917191AF01809156
:1003F0006C0190916D010E940002E2E00C94AA044D
:10040000ACE0B0E0E6E0F2E00C947E047C016B012D
:100410008A01FC0117821682838181FFBDC1CE0152
:1004200001964C01F7019381F60193FD859193FFAD
:1004300081916F01882309F4ABC1853239F493FDB2
:10044000859193FF81916F01853229F4B70190E086
:100450000E94E803E7CF512C312C20E02032A0F499
:100460008B3269F030F4803259F0833269F42061C4
:100470002CC08D3239F0803339F4216026C02260DF
:10048000246023C0286021C027FD27C030ED380F2D
:100490003A3078F426FF06C0FAE05F9E300D112452
:1004A000532E13C08AE0389E300D1124332E206263
:1004B0000CC08E3221F426FD6BC1206406C08C3640
:1004C00011F4206802C0883641F4F60193FD85914D
:1004D00093FF81916F018111C1CF982F9F7D95541A
:1004E000933028F40C5F1F4FFFE3F9830DC0833670
:1004F00031F0833771F0833509F05BC022C0F80119
:10050000808189830E5F1F4F44244394512C5401F2
:1005100015C03801F2E06F0E711CF801A080B180A7
:1005200026FF03C0652D70E002C06FEF7FEFC501AD
:100530002C870E94DD032C0183012C852F77222E2E
:1005400017C03801F2E06F0E711CF801A080B18075
:1005500026FF03C0652D70E002C06FEF7FEFC5017D
:100560002C870E94D2032C012C852068222E830127
:1005700023FC1BC0832D90E048165906B0F4B70148
:1005800080E290E00E94E8033A94F4CFF50127FC62
:10059000859127FE81915F01B70190E00E94E803F9
:1005A00031103A94F1E04F1A51084114510471F797
:1005B000E5C0843611F0893639F5F80127FF07C008
:1005C00060817181828193810C5F1F4F08C06081BF
:1005D0007181882777FD8095982F0E5F1F4F2F76AA
:1005E000722E97FF09C090958095709561957F4F09
:1005F0008F4F9F4F2068722E2AE030E0A4010E94A6
:100600002004A82EA81844C0853729F42F7EB22EC6
:100610002AE030E025C0F22FF97FBF2E8F36C1F0DF
:1006200018F4883579F0B4C0803719F0883721F094
:10063000AFC02F2F2061B22EB4FE0DC08B2D846071
:10064000B82E09C024FF0AC09F2F9660B92E06C09D
:1006500028E030E005C020E130E002C020E132E0D7
:10066000F801B7FE07C060817181828193810C5FC0
:100670001F4F06C06081718180E090E00E5F1F4FC8
:10068000A4010E942004A82EA818FB2DFF777F2E1E
:1006900076FE0BC0372D3E7FA51450F474FE0AC0C1
:1006A00072FC08C0372D3E7E05C0BA2C372D03C022
:1006B000BA2C01C0B52C34FF0DC0FE01EA0DF11DAE
:1006C0008081803311F4397E09C032FF06C0B394B3
:1006D000B39404C0832F867809F0B39433FD13C01C
:1006E00030FF06C05A2CB31418F4530C5B18B32C0B
:1006F000B31468F4B70180E290E03C870E94E803FD
:10070000B3943C85F5CFB31410F43B1801C0312CE1
:1007100034FF12C0B70180E390E03C870E94E803F9
:100720003C8532FF17C031FD03C088E790E002C06E
:1007300088E590E0B7010CC0832F867859F031FF2F
:1007400002C08BE201C080E237FD8DE2B70190E08C
:100750000E94E803A51438F4B70180E390E00E94FA
:10076000E8035A94F7CFAA94F401EA0DF11D8081B1
:10077000B70190E00E94E803A110F5CF332009F4FF
:1007800051CEB70180E290E00E94E8033A94F6CFA0
:10079000F7018681978102C08FEF9FEF2C96E2E1EF
:1007A0000C949A04FC010590615070400110D8F738
:1007B000809590958E0F9F1F0895FC0161507040A9
:1007C00001900110D8F7809590958E0F9F1F089586
:1007D0000F931F93CF93DF93FB01238121FD03C070
:1007E0008FEF9FEF28C022FF16C0468157812481DA
:1007F00035814217530744F4A081B1819D012F5FD9
:100800003F4F318320838C93268137812F5F3F4F69
:100810003783268310C0EB01092F182F0084F18540
:10082000E02D0995892BE1F68E819F8101969F83AA
:100830008E83812F902FDF91CF911F910F9108957B
:10084000FA01AA27283051F1203181F1E8946F9301
:100850006E7F6E5F7F4F8F4F9F4FAF4FB1E03ED0A7
:10086000B4E03CD0670F781F891F9A1FA11D680F45
:10087000791F8A1F911DA11D6A0F711D811D911D78
:10088000A11D20D009F468943F912AE0269F1124ED
:100890003019305D3193DEF6CF010895462F477051
:1008A000405D4193B3E00FD0C9F7F6CF462F4F70AC
:1008B000405D4A3318F0495D31FD4052419302D00A
:1008C000A9F7EACFB4E0A6959795879577956795B0
:1008D000BA95C9F700976105710508959B01AC01B0
:1008E0000A2E06945795479537952795BA95C9F7D7
:1008F000620F731F841F951FA01D08952F923F92B2
:100900004F925F926F927F928F929F92AF92BF921F
:10091000CF92DF92EF92FF920F931F93CF93DF93CB
:10092000CDB7DEB7CA1BDB0B0FB6F894DEBF0FBE28
:10093000CDBF09942A88398848885F846E847D8475
:100940008C849B84AA84B984C884DF80EE80FD8077
:100950000C811B81AA81B981CE0FD11D0FB6F894ED
:0E096000DEBF0FBECDBFED010895F894FFCFAE
:10096E000A4265666F72653A202523303478000A94
:10097E0057726F7465203078666620746F3A202542
:10098E0064000A41667465723A202523303478007B
:10099E000A57726F7465203078303020746F3A20A9
:1009AE002564000A4261636B20746F206E6F726D56
:1009BE00616C3A20252330347800646F75626C6563
:0A09CE00206675636B0025730000BE
:00000001FF
